:100000000C9469000C944D080C9426080C949100F3
:100010000C9491000C9491000C9491000C9491001C
:100020000C9491000C9491000C9491000C94740821
:100030000C9491000C9491000C9491000C949100FC
:100040000C94DC070C9491000C94AA070C94840780
:100050000C9491000C9491000C9491000C949100DC
:100060000C9491000C9491000000010008004000E5
:1000700000010004050D00000000230026002900F7
:1000800000000000240027002A00000000002500D6
:1000900028002B00040404040404040402020202E5
:1000A000020203030303030301020408102040803B
:1000B00001020408102001020408102000000008BA
:1000C000000201000003040700000000000000001F
:1000D000C20911241FBECFEFD8E0DEBFCDBF11E0B3
:1000E000A0E0B1E0E4EEF9E102C005900D92AC3A77
:1000F000B107D9F723E0ACEAB1E001C01D92A63602
:10010000B207E1F710E0C9E6D0E004C02197FE0194
:100110000E94B70BC836D107C9F70E94440A0C9455
:10012000F00C0C940000FC01538D448D252F30E021
:10013000842F90E0821B930B541710F0CF960895F4
:1001400001970895FC01918D828D981761F0A28D21
:10015000AE0FBF2FB11D5D968C91928D9F5F9F73E7
:10016000928F90E008958FEF9FEF0895FC01918D9D
:10017000828D981731F0828DE80FF11D858D90E00A
:1001800008958FEF9FEF0895FC01918D228D892FA7
:1001900090E0805C9F4F821B91098F73992708958F
:1001A000FC01A48DA80FB92FB11DA35ABF4F2C91EC
:1001B000848D90E001968F739927848FA689B789E3
:1001C0002C93A089B1898C91837080648C93938DDA
:1001D000848D981306C00288F389E02D80818F7D7D
:1001E00080830895EF92FF920F931F93CF93DF9335
:1001F000EC0181E0888F9B8D8C8D98131AC0E88963
:10020000F989808185FF15C09FB7F894EE89FF8931
:100210006083E889F98980818370806480839FBFCF
:1002200081E090E0DF91CF911F910F91FF90EF90CF
:100230000895F62E0B8D10E00F5F1F4F0F731127DF
:10024000E02E8C8D8E110CC00FB607FCFACFE8891A
:10025000F989808185FFF5CFCE010E94D000F1CFD2
:10026000EB8DEC0FFD2FF11DE35AFF4FF0829FB78E
:10027000F8940B8FEA89FB8980818062CFCFCF937E
:10028000DF93EC01888D8823B9F0AA89BB89E889BE
:10029000F9898C9185FD03C0808186FD0DC00FB664
:1002A00007FCF7CF8C9185FFF2CF808185FFEDCFE2
:1002B000CE010E94D000E9CFDF91CF9108958BEB62
:1002C00091E00E94C40021E0892B09F420E0822FF4
:1002D000089580E090E0892B29F00E945F01811150
:1002E0000C9400000895AF92BF92CF92DF92EF92EC
:1002F000FF920F931F93CF93DF936C017B018B01D0
:10030000040F151FEB015E01AE18BF08C017D1071F
:1003100059F06991D601ED91FC910190F081E02DA9
:10032000C6010995892B79F7C501DF91CF911F91FE
:100330000F91FF90EF90DF90CF90BF90AF90089516
:10034000833081F028F4813099F08230A9F008954B
:100350008730A9F08830C9F08430B1F480918000F2
:100360008F7D03C0809180008F77809380000895F7
:1003700084B58F7784BD089584B58F7DFBCF809140
:10038000B0008F778093B00008958091B0008F7D8A
:10039000F9CF1F93CF93DF93282F30E0F901E45476
:1003A000FF4F8491F901E855FF4FD491F901EC56C4
:1003B000FF4FC491CC23A9F0162F81110E94A001F8
:1003C000EC2FF0E0EE0FFF1FE657FF4FA591B49121
:1003D0008FB7F894EC91111108C0D095DE23DC930F
:1003E0008FBFDF91CF911F910895DE2BF8CFCF9370
:1003F000DF9390E0FC01E855FF4F24918C569F4F0E
:10040000FC0184918823D1F090E0880F991FFC01B2
:10041000E058FF4FA591B491FC01E657FF4FC591FD
:10042000D49161110EC09FB7F8948C91E22FE095A2
:100430008E238C932881E223E8839FBFDF91CF91A5
:1004400008958FB7F894EC91E22BEC938FBFF6CF21
:100450003FB7F8948091B7019091B801A091B9018C
:10046000B091BA0126B5A89B05C02F3F19F001969F
:10047000A11DB11D3FBFBA2FA92F982F8827BC01FE
:10048000CD01620F711D811D911D42E0660F771F26
:10049000881F991F4A95D1F708958F929F92AF9226
:1004A000BF92CF92DF92EF92FF926B017C010E948C
:1004B00028024B015C01C114D104E104F104B9F03C
:1004C0000E942802681979098A099B09683E7340CD
:1004D0008105910580F321E0C21AD108E108F108F5
:1004E00088EE880E83E0981EA11CB11CE4CFFF901B
:1004F000EF90DF90CF90BF90AF909F908F90089536
:100500002FB7F8946091B3017091B4018091B50157
:100510009091B6012FBF0895089508958CE3089532
:10052000CF93DF93FC01228133812230310569F0C2
:10053000EC01678D858D0E94C90160E08C8D0E9461
:10054000C90182E090E09B838A83DF91CF91089577
:1005500081E008952FB7F89491E0662339F092E096
:10056000613021F082E08093AF0190E08091AE0194
:10057000892B8093AE018091AF01811103C081E08E
:100580008093AF012FBF08958091AF01882361F060
:100590009FB7F8942091AF018091AD01213019F4FB
:1005A0008DBB9FBF08958FBF0895FC0130852185C5
:1005B0008091AF01882381F09FB7F8948091AF01BB
:1005C000813069F48DB38093AD014DB38091AE015C
:1005D000809584238DBB9FBF3CBD2DBD0895909316
:1005E000AD01FACF9FB7F8948091AC01882319F040
:1005F00081508093AC018091AC01811105C08CB514
:100600008F7B8CBD1092AF019FBF08958CB58F7703
:100610008CBD08958CB580688CBD08956EBD0000BA
:100620000DB407FEFDCF8EB50895FC017383628380
:100630000895FC01778366830895FC0175836483C4
:10064000089508950895FC01848995890895FC0111
:10065000828993890895FC0180899189089580E0B9
:100660000895FC01738362830895FC018281938164
:100670000895FC01868597850895FC01818508957C
:10068000FC0180850895FC0187810895FC01868125
:1006900008954095FC0125854223642B65870895C4
:1006A000FC0164870895FC0163870895FC0162875B
:1006B0000895FC0164830895FC01658308958F9279
:1006C0009F92AF92BF92CF92DF92EF92FF92CF9321
:1006D000DF93EC016B010E9480024B015C01F12C65
:1006E000E12C0E948002681979098A099B096C151E
:1006F0007D058E059F0580F48A819B81039789F390
:1007000081E0DF91CF91FF90EF90DF90CF90BF908D
:10071000AF909F908F90089580E0F3CFFC012281ED
:10072000338123303105D1F381E008954F925F92F8
:100730006F927F928F929F92AF92BF92CF92DF92F1
:10074000EF92FF920F931F93CF93DF93EC016B0116
:100750008A010E9480022B013C01F12CE12C48010E
:10076000B12CA12C0E948002641975098609970991
:100770006C157D058E059F0588F4E881F98106805A
:10078000F781E02DCE010995811109C001151105F0
:1007900049F3C501B4010E944D02E4CF80E0DF912E
:1007A000CF911F910F91FF90EF90DF90CF90BF906E
:1007B000AF909F908F907F906F905F904F90089533
:1007C000CF92DF92EF92FF920F931F93CF93DF931D
:1007D000EC018B016B01F12CE12CE881F9810680A1
:1007E000F781E02DCE010995811108C00115110591
:1007F000A1F3C701B6010E944D02EFCFDF91CF9167
:100800001F910F91FF90EF90DF90CF900895862772
:1008100020E1829FB00111248627482F50E0292F24
:10082000382FCA0164E0959587956A95E1F72827E6
:100830003927CA0173E0880F991F7A95E1F782275B
:10084000932708956F927F928F929F92AF92BF925B
:10085000CF92DF92EF92FF920F931F93CF93DF938C
:100860004D3388F0712C872DDF91CF911F910F911F
:10087000FF90EF90DF90CF90BF90AF909F908F90C0
:100880007F906F900895042F5B01EC01E881F9815E
:100890000088F189E02D0995E881F9810688F789BA
:1008A000E02DCE010995782E8823E1F27E0129E71B
:1008B000E20EF11C17E0100F612F8FEF9FEF0E94E7
:1008C0000704E12FF0E064E0F595E7956A95E1F71C
:1008D000EA5EFE4F2081F70120831F70E12FF0E0D8
:1008E000EA5EFE4F2081FE01E658FF4F20831A8505
:1008F000612F0E940704E12FF0E074E0F595E79581
:100900007A95E1F7EA5EFE4F2081FE01E558FF4F40
:1009100020831F70E12FF0E0EA5EFE4F2081FE0190
:10092000E458FF4F20831B85612F0E940704E12FAD
:10093000F0E0A4E0F595E795AA95E1F7EA5EFE4FB1
:100940002081FE01E358FF4F20831F70E12FF0E06C
:10095000EA5EFE4F2081FE01E258FF4F20831C8596
:10096000612F0E940704E12FF0E0B4E0F595E795D0
:10097000BA95E1F7EA5EFE4F2081FE01E158FF4F94
:1009800020831F70E12FF0E0EA5EFE4F2081FE0120
:10099000E058FF4F20831D85612F0E940704E12F3F
:1009A000F0E024E0F595E7952A95E1F7EA5EFE4F41
:1009B0002081FE01EF57FF4F20831F70E12FF0E0F1
:1009C000EA5EFE4F2081FE01EE57FF4F2083650156
:1009D000470110E0A00EB11EF2E08F0E911CCA1468
:1009E000DB04E9F0F60161906F01662D0E940704B7
:1009F000E62DF0E054E0F595E7955A95E1F7EA5ECB
:100A0000FE4F2081F4012087F6013197E081EF70DD
:100A1000F0E0EA5EFE4F2081F4012187DDCF9801EE
:100A20002B5F3F4F220F331F80959095D701A20F68
:100A3000B31FFC0154E0F695E7955A95E1F7EF7086
:100A4000FF27EA5EFE4F30813C93F801EE0FFF1F57
:100A5000BF016E0D7F1DAC014F7055274A5E5E4F82
:100A6000FA013081FB0133870A5F1F4F000F111F0E
:100A70000E0D1F1DFC01EF2FFF27E295EF70EA5EC0
:100A8000FE4F3081F8013083E92FFF27EF70FF27F9
:100A9000EA5EFE4F808113968C93FE01E150FF4F7A
:100AA000245F20838A819B81039709F4DCCEE1597E
:100AB000F109108231961082319610826F8D81E09B
:100AC00068278D8D0E94C90183E090E09B838A8313
:100AD000CACEEF92FF921F93CF93DF93FC01228146
:100AE00033812330310509F452C0EC0182819381B6
:100AF000049761F0678D858D0E94C90160E08C8D3F
:100B00000E94C90184E090E09B838A8388A18823A6
:100B1000E9F010E08FEF9FEF7E01FDE6EF0EF11C94
:100B2000F7012081121740F4FE01E10FF11D61A5CC
:100B30000E9407041F5FF4CF883B904F71F08889B3
:100B400099890196998B888B19A218A289A1DF91A6
:100B5000CF911F91FF90EF9008958AA58E838BA56A
:100B60008F838CA588878DA589878D81811107C08A
:100B70009E818C81981719F08E818F3F31F78A8979
:100B80009B8901969B8B8A8B81E089A3DECF80E0D5
:100B9000DECF0E94E20C0C94590CDF92EF92FF9290
:100BA0000F931F93CF93DF93EC017B018A01E881C0
:100BB000F9810680F781E02D0995D82E8823D1F0A0
:100BC000E114F104B1F00115110599F0FE01E359AA
:100BD000FF4F80818750F8019081891708F4808346
:100BE000F801408150E0BE01625D7F4FC7010E9465
:100BF000E70C19A28D2DDF91CF911F910F91FF90DE
:100C0000EF90DF9008954F925F926F927F92AF9234
:100C1000BF92CF92DF92EF92FF921F93CF93DF9319
:100C200000D0CDB7DEB77C019093B1018093B001C5
:100C300061E0FC01848D0E94F70160E0F701838D83
:100C40000E94F70161E0F701858D0E94F701C7015D
:100C50000E949002F701C18CD28CC114D10409F416
:100C600044C0F12CE12C83E0CC0CDD1CEE1CFF1CFD
:100C70008A95D1F79AE6A92E90E0B92E11E0412C81
:100C800024E2522E24EF622E712C42E050E0B50196
:100C9000CE0101960E944B0B29813A8150E040E041
:100CA000C301B2010E94860BCA01B901A7019601D6
:100CB0000E94860BDA01C9010297A109B1098D3F93
:100CC0009F4FA105B10510F11F5F62E0A60EB11C98
:100CD0001730D9F6223031054105510530F0211584
:100CE000310581E04807510598F081E00F900F90A1
:100CF000DF91CF911F91FF90EF90DF90CF90BF9049
:100D0000AF907F906F905F904F900895163069F389
:100D10001092800088E08093810080918100182BE0
:100D200010938100309389002093880080916F0098
:100D3000826080936F00D9CF0F931F93CF93FC01F4
:100D40008281938140E054E264EF70E08430910549
:100D5000C1F040E052E16AE770E08330910589F02C
:100D600040E059E06DE370E08230910551F040E4DD
:100D700052E46FE070E0019721F440E854E86EE13E
:100D800070E0A481B58186819781009709F466C0DF
:100D90008130910509F45EC08230910509F45CC090
:100DA000039709F05BC08CE000E012E12AE730E035
:100DB00090E0401751076207730740F43695279576
:100DC000179507959F5F9630A1F797E021E02927B7
:100DD00030E5119709F430E72695282B232B20873F
:100DE000909591709187CFB7F8948091AC01811163
:100DF00027C0EEE9F0E08491E2EBF0E09491E82F77
:100E0000F0E0EE0FFF1FE058FF4FA591B491EC9179
:100E1000E92321F461E08AE00E94C90161E08AE0EF
:100E20000E94F7018CB580618CBD8CB580648CBD4F
:100E300061E08DE00E94F70161E08BE00E94F70124
:100E40008091AC018F5F8093AC01CFBFCF911F9198
:100E50000F91089584E0A8CF88E0A6CF80E0A4CFCA
:100E60008F929F92AF92BF92CF92DF92EF92FF92BA
:100E7000CF93DF93FC012789308D232BB9F1EC014F
:100E80000E9480024B015C0189E0C82ED12CE12C2C
:100E9000F12CE881F981008CF18DE02DCE010995CE
:100EA000882321F10E948002AB01BC014819590935
:100EB0006A097B098F89988DB0E0A0E084179507B7
:100EC000A607B707F8F00E94F30AA70196010E944F
:100ED000540B9B01AC012F5F3F4F4F4F5F4FA4E678
:100EE000B0E00E94730B0E944D02D3CF81E0DF91EE
:100EF000CF91FF90EF90DF90CF90BF90AF909F90F9
:100F00008F90089580E0F3CF1F920F920FB60F924B
:100F100011242F933F934F935F936F937F938F93FE
:100F20009F93AF93BF93EF93FF938BEB91E00E945E
:100F3000D000FF91EF91BF91AF919F918F917F91E1
:100F40006F915F914F913F912F910F900FBE0F9036
:100F50001F9018951F920F920FB60F9211242F9386
:100F60008F939F93EF93FF93E091CB01F091CC018E
:100F70008081E091D101F091D20182FD1BC090816E
:100F80008091D4018F5F8F732091D501821741F03A
:100F9000E091D401F0E0E554FE4F958F8093D401A9
:100FA000FF91EF919F918F912F910F900FBE0F9016
:100FB0001F9018958081F4CF1F920F920FB60F9259
:100FC00011242F933F938F939F93AF93BF9380915F
:100FD000B3019091B401A091B501B091B6013091E7
:100FE000B20123E0230F2D3758F50196A11DB11D45
:100FF0002093B2018093B3019093B401A093B50103
:10100000B093B6018091B7019091B801A091B90158
:10101000B091BA010196A11DB11D8093B7019093C3
:10102000B801A093B901B093BA01BF91AF919F915C
:101030008F913F912F910F900FBE0F901F90189599
:1010400026E8230F0296A11DB11DD2CF1F920F9249
:101050000FB60F9211242F933F934F935F936F938B
:101060007F938F939F93AF93BF93EF93FF93E09101
:101070000201F09103010995FF91EF91BF91AF91AA
:101080009F918F917F916F915F914F913F912F91A0
:101090000F900FBE0F901F9018951F920F920FB6D2
:1010A0000F9211242F933F934F935F936F937F93EE
:1010B0008F939F93AF93BF93EF93FF93E0910001C2
:1010C000F09101010995FF91EF91BF91AF919F912F
:1010D0008F917F916F915F914F913F912F910F90E1
:1010E0000FBE0F901F9018951F920F920FB60F9280
:1010F0001124CF92DF92EF92FF920F931F932F93C1
:101100003F934F935F936F937F938F939F93AF938F
:10111000BF93CF93DF93EF93FF93C091B001D09132
:10112000B1018A819B81049709F0E1C02B8D30E0E9
:10113000F901E454FF4F8491F901E855FF4F049100
:10114000F901EC56FF4F1491112379F081110E949F
:10115000A001E12FF0E0EE0FFF1FEA58FF4FA5912D
:10116000B491EC910E2381E009F480E081702E8D22
:10117000982F9227821719F08BA18F5F8BA38AA1DA
:101180008917F1F18CA12DE1803508F42BE08CA1B9
:10119000820F8CA39AA38CA1803A08F46DC08EA113
:1011A0009FA1969587959FA38EA38BA1853028F04C
:1011B0008EA19FA198609FA38EA38CA1805A8CA31F
:1011C0001BA28DA1882309F486C088A58F5F88A7FC
:1011D0008C3008F451C08EA19FA1982F9F73892F46
:1011E00086958695887028E0280F281769F0E82FE3
:1011F000F0E0EA5EFE4F3081931739F08F5FF5CF54
:101200008CA18C5E8CA3C7CF80E090E1899F900178
:1012100011248EA19FA136E0969587953A95E1F726
:10122000482F9595879595958795887098E0980FA4
:10123000891749F0E82FF0E0EA5EFE4F508145172C
:1012400019F08F5FF5CF80E0822BDE01A359BF4FED
:101250009C91AE0144595F4F911127C0FA018083E0
:101260009081973018F090819434F8F01DA288890D
:1012700099890196998B888BFF91EF91DF91CF919E
:10128000BF91AF919F918F917F916F915F914F919E
:101290003F912F911F910F91FF90EF90DF90CF9092
:1012A0000F900FBE0F901F9018952C9191E0920F08
:1012B0009C932C0F3D2F311DF90181A79C91DA01E0
:1012C0008C91981730F01DA281E088A3CE010E9476
:1012D000900218A6D1CF8EA19FA188339B4061F6C2
:1012E00081E08DA318A6C359DF4F1882C5CF8A812C
:1012F0009B81039709F68E0100591F4FF8018081E9
:1013000091E0980F9083811113C06E01FEE6CF0E1D
:10131000D11CD601EC91AF56BF4F8C91E81778F0F5
:10132000CE010E9490028C899D8901969D8B8C8BA9
:10133000D8018C91883008F49FCF1C929DCFEC0F80
:10134000FD2FF11DEF58FF4F608170E07E01BFE679
:10135000EB0EF11CF701808191E0980F908302C0A1
:10136000759567958A95E2F761708C8D0E94C90129
:10137000D7018C918630E0F21C92F60180818F5F5C
:101380008083D6CFCF93DF93CDB7DEB728970FB644
:10139000F894DEBF0FBECDBFEBEBF1E013821282FB
:1013A00088EE93E0A0E0B0E084839583A683B783C2
:1013B0008AE291E09183808385EC90E09587848731
:1013C00084EC90E09787868780EC90E0918B808B0F
:1013D00081EC90E0938B828B82EC90E0958B848BF8
:1013E00086EC90E0978B868B118E128E138E148E66
:1013F000E8E5F2E0138212821582148217821682C7
:101400008CE391E09183808380E580871186E2E61A
:10141000F2E0138212828FEF84838287838714869F
:101420001586118A108A138A128A158A148A108ED8
:10143000178A86E591E09183808380ED97E0928F13
:10144000818F8BE0838F8CE0848F8AE0858F168E6E
:10145000178E88E0EEE0F1E0DE01119601900D922A
:101460008A95E1F788E0FE013196A3EDB2E00190A4
:101470000D928A95E1F728960FB6F894DEBF0FBE5D
:10148000CDBFDF91CF910895789484B5826084BDFB
:1014900084B5816084BD85B5826085BD85B5816078
:1014A00085BD80916E00816080936E0010928100F6
:1014B00080918100826080938100809181008160B1
:1014C0008093810080918000816080938000809172
:1014D000B10084608093B1008091B00081608093FE
:1014E000B00080917A00846080937A0080917A00C5
:1014F000826080937A0080917A00816080937A0084
:1015000080917A00806880937A001092C10082E610
:1015100092E00E940306C0E0D0E048E162E971E099
:1015200082E692E00E94220482E692E00E948E030C
:1015300068EE73E080E090E00E944D02209769F32E
:101540000E945F01882349F30E940000E6CF8F923A
:101550009F92AF92BF92CF92DF92EF92FF92CF9382
:10156000DF93EC01688179818A819B816115710526
:101570008105910521F464E279ED8BE597E02DE199
:1015800033EF41E050E00E94540B49015A019B01A6
:10159000AC01A7EAB1E40E94730B6B017C01ACEED5
:1015A000B4EFA50194010E94810BC60ED71EE81E60
:1015B000F91EF7FE06C081E0C81AD108E10880E8EC
:1015C000F80AC882D982EA82FB82C701B6019F77F6
:1015D000DF91CF91FF90EF90DF90CF90BF90AF90D1
:1015E0009F908F9008958F929F92AF92BF92CF92CB
:1015F000DF92EF92FF92609104017091050180915A
:10160000060190910701611571058105910521F48D
:1016100064E279ED8BE597E02DE133EF41E050E0B6
:101620000E94540B49015A019B01AC01A7EAB1E4A5
:101630000E94730B6B017C01ACEEB4EFA501940129
:101640000E94810BC60ED71EE81EF91EF7FE06C0CB
:1016500081E0C81AD108E10880E8F80AC0920401C4
:10166000D0920501E0920601F0920701C701B60190
:101670009F77FF90EF90DF90CF90BF90AF909F90BB
:101680008F90089560930401709305018093060183
:10169000909307010895FB01DC0102C005900D92B3
:1016A00041505040D8F70895052E97FB1EF4009442
:1016B0000E946B0B57FD07D00E94860B07FC03D0DE
:1016C0004EF40C946B0B50954095309521953F4FFF
:1016D0004F4F5F4F089590958095709561957F4F1E
:1016E0008F4F9F4F08950E94A80BA59F900DB49F08
:1016F000900DA49F800D911D11240895B7FF0C94A7
:10170000730B0E94730B821B930B0895A1E21A2E98
:10171000AA1BBB1BFD010DC0AA1FBB1FEE1FFF1F95
:10172000A217B307E407F50720F0A21BB30BE40BE5
:10173000F50B661F771F881F991F1A9469F760952C
:101740007095809590959B01AC01BD01CF010895E6
:10175000A29FB001B39FC001A39F700D811D1124F2
:10176000911DB29F700D811D1124911D0895EE0FE2
:10177000FF1F0590F491E02D09940F931F93CF93D1
:10178000DF938230910510F482E090E0E0916403F1
:10179000F091650330E020E0B0E0A0E0309799F4EC
:1017A0002115310509F44AC0281B390B24303105B5
:1017B000D8F58A819B816115710589F1FB019383BD
:1017C0008283FE0111C0408151810281138148173B
:1017D0005907E0F04817590799F4109761F01296ED
:1017E0000C93129713961C933296CF01DF91CF91F1
:1017F0001F910F9108950093640310936503F4CF34
:101800002115310551F04217530738F0A901DB01CA
:101810009A01BD01DF01F801C1CFEF01F9CF90932B
:10182000650380936403CDCFFE01E20FF31F819324
:1018300091932250310939832883D7CF20916203B5
:1018400030916303232B41F420910A0130910B0165
:1018500030936303209362032091080130910901C2
:101860002115310541F42DB73EB740910C0150913F
:101870000D01241B350BE0916203F0916303E21725
:10188000F307A0F42E1B3F0B2817390778F0AC01A3
:101890004E5F5F4F2417350748F04E0F5F1F509380
:1018A000630340936203819391939FCFF0E0E0E064
:1018B0009CCFCF93DF930097E9F0FC01329713821E
:1018C0001282A0916403B0916503ED0130E020E045
:1018D0001097A1F420813181820F931F2091620320
:1018E000309163032817390709F061C0F09363034F
:1018F000E0936203DF91CF910895EA01CE17DF07ED
:10190000E8F54A815B819E0141155105B1F7E90176
:10191000FB83EA8349915991C40FD51FEC17FD074A
:1019200061F4808191810296840F951FE90199836A
:101930008883828193819B838A83F0E0E0E0129622
:101940008D919C9113970097B9F52D913C9111972A
:10195000CD010296820F931F2091620330916303A1
:101960002817390739F6309751F510926503109210
:101970006403B0936303A0936203BCCFD383C28399
:1019800040815181840F951FC817D90761F44E5FBC
:101990005F4F88819981480F591F518340838A8105
:1019A0009B81938382832115310509F0B0CFF09399
:1019B0006503E09364039ECFFD01DC01C0CF138279
:1019C0001282D7CF81E090E0F8940C94F00CFB01E8
:1019D000DC0102C001900D9241505040D8F70895AB
:0419E000F894FFCFA9
:1019E4008C028C02010000000000660380002A2A99
:1019F4002A2A2A2A382C0D0E131516191A1C2325E7
:101A040026292A2C323400000000F20073019300CE
:101A14003F01C400A200B600000000000E030A0348
:101A240006039C06F2021D0319031503D502C40222
:101A3400AA02000000008D02CB0503066905CD054E
:101A440022048E02E0038E035F03960330072F0304
:101A5400590356035303500349035C0346034303EA
:101A640040033D033903350331032F032B032703BD
:101A7400230357656C636F6D6520746F207468650C
:0C1A840020576F726B73686F70210000B8
:00000001FF
